:100000000C94CB000C94F3000C94F3000C94F20EBF
:100010000C94F20E0C94F20E0C94F3000C94F3007A
:100020000C94F3000C94F3000C94F3000C94F30084
:100030000C94F3000C94F3000C94F3000C94F30074
:100040000C94A80E0C94F3000C94760E0C94500EA5
:100050000C94F3000C94F3000C94F3000C94F30054
:100060000C94FC0E0C94F300000000002400270008
:100070002A0000000000250028002B0000000000DE
:1000800023002600290004040404040404040202DA
:100090000202020203030303030301020408102007
:1000A0004080010204081020010204081020000012
:1000B0000008000201000003040700000000000027
:1000C0000000322E506C656173652072656368654F
:1000D000636B2074686520636F6E6E656374696F0F
:1000E0006E2E00312E506C656173652072656368F9
:1000F00065636B20746865202250726F746F636F44
:100100006C20547970652220696E204855534B59F4
:100110004C454E53202847656E6572616C205365CF
:100120007474696E67733E3E50726F746F636F6C68
:1001300020547970653E3E49324329004265676923
:100140006E206661696C65642100232323232323C9
:100150002323232323004661696C20746F2072657A
:10016000717565737420646174612066726F6D20AF
:100170004855534B594C454E532C20726563686566
:10018000636B2074686520636F6E6E656374696F5E
:100190006E210000841011241FBECFEFD8E0DEBF17
:1001A000CDBF12E0A0E0B1E0EAECFAE302C00590B6
:1001B0000D92A233B107D9F726E0A2E3B2E001C065
:1001C0001D92AD3DB207E1F710E0CBECD0E004C0EA
:1001D0002197FE010E946B1BCA3CD107C9F70E9400
:1001E00013120C94631D0C94000008950895AF92AF
:1001F000BF92CF92DF92EF92FF920F931F93CF9314
:10020000DF936C017B018B01040F151FEB015E0175
:10021000AE18BF08C017D10759F06991D601ED910A
:10022000FC910190F081E02DC6010995892B79F7A9
:10023000C501DF91CF911F910F91FF90EF90DF905B
:10024000CF90BF90AF900895FC01538D448D252F22
:1002500030E0842F90E0821B930B541710F0CF9660
:10026000089501970895FC01918D828D981761F092
:10027000A28DAE0FBF2FB11D5D968C91928D9F5FA9
:100280009F73928F90E008958FEF9FEF0895FC0188
:10029000918D828D981731F0828DE80FF11D858D3B
:1002A00090E008958FEF9FEF0895FC01918D228DCE
:1002B000892F90E0805C9F4F821B91098F73992753
:1002C000089583E194E00E94550121E0892B09F40F
:1002D00020E0822F089580E090E0892B29F00E9491
:1002E000610181110C9400000895FC01A48DA80FF8
:1002F000B92FB11DA35ABF4F2C91848D90E0019668
:100300008F739927848FA689B7892C93A089B18987
:100310008C91837080648C93938D848D981306C028
:100320000288F389E02D80818F7D80830895EF928C
:10033000FF920F931F93CF93DF93EC0181E0888F9F
:100340009B8D8C8D98131AC0E889F989808185FF6F
:1003500015C09FB7F894EE89FF896083E889F98911
:1003600080818370806480839FBF81E090E0DF9113
:10037000CF911F910F91FF90EF900895F62E0B8D66
:1003800010E00F5F1F4F0F731127E02E8C8D8E1121
:100390000CC00FB607FCFACFE889F989808185FF88
:1003A000F5CFCE010E947501F1CFEB8DEC0FFD2F43
:1003B000F11DE35AFF4FF0829FB7F8940B8FEA8943
:1003C000FB8980818062CFCFCF93DF93EC01888D52
:1003D0008823B9F0AA89BB89E889F9898C9185FDC0
:1003E00003C0808186FD0DC00FB607FCF7CF8C914E
:1003F00085FFF2CF808185FFEDCFCE010E94750190
:10040000E9CFDF91CF910895833081F028F48130D6
:1004100099F08230A9F008958730A9F08830C9F0AA
:100420008430B1F4809180008F7D03C08091800082
:100430008F7780938000089584B58F7784BD089569
:1004400084B58F7DFBCF8091B0008F778093B00013
:1004500008958091B0008F7DF9CFCF93DF93282F3F
:1004600030E0F901E255FF4F8491F901E656FF4F64
:10047000D491F901EA57FF4FC491CC23A1F0811127
:100480000E940402EC2FF0E0EE0FFF1FE458FF4F34
:10049000A591B491EC91ED2381E090E009F480E026
:1004A000DF91CF91089580E090E0FACF1F93CF9332
:1004B000DF93282F30E0F901E255FF4F8491F901D5
:1004C000E656FF4FD491F901EA57FF4FC491CC2370
:1004D000A9F0162F81110E940402EC2FF0E0EE0F1C
:1004E000FF1FEE58FF4FA591B4918FB7F894EC9190
:1004F000111108C0D095DE23DC938FBFDF91CF911F
:100500001F910895DE2BF8CFCF93DF9390E0FC018D
:10051000E656FF4F24918A579F4FFC018491882310
:10052000D1F090E0880F991FFC01E859FF4FA59189
:10053000B491FC01EE58FF4FC591D49161110EC0EA
:100540009FB7F8948C91E22FE0958E238C932881AD
:10055000E223E8839FBFDF91CF9108958FB7F8948E
:10056000EC91E22BEC938FBFF6CF3FB7F8948091DC
:100570009D0290919E02A0919F02B091A00226B58B
:10058000A89B05C02F3F19F00196A11DB11D3FBFCB
:10059000BA2FA92F982F8827BC01CD01620F711D9A
:1005A000811D911D42E0660F771F881F991F4A9594
:1005B000D1F708958F929F92AF92BF92CF92DF9220
:1005C000EF92FF924B015C010E94B5026B017C012E
:1005D0000E94B5026C197D098E099F09683E73401F
:1005E00081059105A8F321E0821A9108A108B108BC
:1005F00088EEC80E83E0D81EE11CF11C8114910422
:10060000A104B10429F7FF90EF90DF90CF90BF9045
:10061000AF909F908F90089580912103811121C008
:1006200080912203909123038F379105D4F42BEF0F
:10063000280F2093A402E1EAF2E020E0AF01415A42
:1006400052404817590754F0FC01EF55FD4F2083E5
:100650000196909323038093220308953191230FF1
:10066000EDCF90E080E0089510922103E1EAF2E0FE
:1006700095E590839AEA918391E19283848385E062
:1006800090E09093230380932203CF01089520915B
:1006900096023091970221303105F1F13CF5211598
:1006A000310579F1F901EF5CFC4F8083409134030F
:1006B000842F90E005962817390739F59093990211
:1006C0008093980210929702109296024B5FE1E39A
:1006D000F3E030E020E0341768F19927FC01EF5C8B
:1006E000FC4F81E0908192131DC0089522303105A6
:1006F000F1F023303105B1F68A3780F4809334036A
:1007000004C0853579F4809331032F5F3F4F3093D8
:1007100097022093960206C08A3A31F0109297020F
:100720001092960280E0E1CF80933203EECF809367
:100730003303EBCF5191250F3F5FCDCF2091730253
:10074000260F3327331F21323105ECF42091FD03AE
:10075000FC0190E080E0243069F082E00895A091EF
:1007600073022191AC014D5A5D4FA40FB52FB11DFD
:100770002C930196861798F380917302680F60930B
:10078000730280E0089581E008951092FD0381E0F6
:100790008093DC031092D70361E082E10E9456024D
:1007A00061E083E10E945602E9EBF0E080818E7FF8
:1007B000808380818D7F808388E48093B80085E486
:1007C0008093BC000895CF93DF9391E09093520201
:1007D0008823B9F0C091B800D091BA008091BC00D4
:1007E0008A7B8093BC0060E082E10E94560260E058
:1007F00083E10E9456020E94C503D093BA00C093C1
:10080000B800DF91CF910895CF92DF92EF92FF92DF
:100810000F931F93CF93DF93D82FC62F613208F029
:1008200098C00E94B5026B017C018091FD0381118B
:100830006BC081E08093FD038093DC039FEF909376
:10084000DB031092DA039C0F9093D9038093D803B3
:100850008091D803DD0FD82BD093D8038091D70394
:10086000813009F078C01092D7030E94B5026B0165
:100870007C018091D8038093BB008091FF0390910D
:100880000004A0910104B0910204892B8A2B8B2BC8
:10089000A1F00E94B5020091FF0310910004209185
:1008A0000104309102046C197D098E099F09061715
:1008B00017072807390708F448C08091BC0083FD5A
:1008C000D8CF85EC8093BC000E94B5026B017C01FF
:1008D0008091FD03813009F440C08091DA038C17C8
:1008E00010F4C091DA03E7EBF3E0ADEDB3E080E0A4
:1008F0008C1355C08C2FDF91CF911F910F91FF90DA
:10090000EF90DF90CF9008958091FF0390910004C5
:10091000A0910104B0910204892B8A2B8B2B09F43E
:1009200084CF0E94B5020091FF0310910004209132
:100930000104309102046C197D098E099F09061784
:1009400017072807390708F070CF8091FE030E942F
:10095000E303C0E0CFCF85EEB5CF8091FF03909148
:100960000004A0910104B0910204892B8A2B8B2BE7
:1009700009F4AECF0E94B5020091FF03109100046C
:1009800020910104309102046C197D098E099F09A0
:10099000061717072807390708F09ACFD6CF919185
:1009A0009D938F5FA5CF0895E091B2038091B1032D
:1009B000E81730F4F0E0E352FC4F808190E00895B6
:1009C0008FEF9FEF08959091B2038091B1032FEFC5
:1009D0003FEF981748F4E92FF0E0E352FC4F2081F5
:1009E00030E09F5F9093B203C90108958091B103F5
:1009F0009091B203891B990B0895CF92DF92EF92E9
:100A0000FF920F931F93CF93DF937C01CB018A0159
:100A100020910604222389F0EB016B01C40ED51E40
:100A2000CC15DD0569F06991D701ED91FC9101903C
:100A3000F081E02DC7010995F3CF642F0E949E033A
:100A4000C801DF91CF911F910F91FF90EF90DF9040
:100A5000CF900895CF93DF931F92CDB7DEB7698310
:100A6000209106042223F9F020910304203258F04B
:100A700021E030E0FC013383228390E080E00F909E
:100A8000DF91CF91089580910404E82FF0E0EE5CAF
:100A9000FD4F998190838F5F8093040480930304BA
:100AA00081E090E0ECCF61E0CE0101960E949E03D0
:100AB000F7CFCF92DF92EF92FF920F931F93CF93D6
:100AC000DF93D091030481E0D13208F09CC0C09143
:100AD00005040E94B5026B017C018091FD03811128
:100AE0006CC082E08093FD0381E08093DC038FEF94
:100AF0008093DB031092DA03D093D903A2E3B2E030
:100B0000E7EBF3E080E0D8138DC01092D80380911A
:100B1000D803CC0FC82BC093D8038091D703813062
:100B200009F084C01092D7030E94B5026B017C01CA
:100B30008091D8038093BB008091FF0390910004C3
:100B4000A0910104B0910204892B8A2B8B2BA1F078
:100B50000E94B5020091FF0310910004209101044E
:100B6000309102046C197D098E099F090617170739
:100B70002807390708F442C08091BC0083FDD8CF14
:100B800085EC8093BC000E94B5026B017C018091D2
:100B9000FD03823009F44CC08091DB038F3F09F4E0
:100BA00069C08091DB03803209F466C08091DB0369
:100BB000803309F463C084E026C08091FF039091E4
:100BC0000004A0910104B0910204892B8A2B8B2B85
:100BD00009F483CF0E94B5020091FF031091000435
:100BE00020910104309102046C197D098E099F093E
:100BF000061717072807390708F06FCF8091FE0303
:100C00000E94E30385E01092040410920304109202
:100C10000604DF91CF911F910F91FF90EF90DF902D
:100C2000CF9008959D9191938F5F6DCF85EEA9CF61
:100C30008091FF0390910004A0910104B0910204FF
:100C4000892B8A2B8B2B09F4A2CF0E94B50200912D
:100C5000FF031091000420910104309102046C19EB
:100C60007D098E099F09061717072807390708F01D
:100C70008ECFC4CF80E0C7CF82E0C5CF83E0C3CFA3
:100C80009C01AB018091B0049091B1040097C1F038
:100C9000B90121E02093060422E320930504109279
:100CA000040410920304DC01ED91FC910280F381B5
:100CB000E02D09958091B0049091B1040C945905F0
:100CC0008091B2049091B304009741F0DC01ED9162
:100CD000FC910280F381E02DB901099408951F93DE
:100CE000CF93DF93162FC0E8D5E0A981BA81988110
:100CF00021E02093060490930504109204041092BE
:100D00000304ED91FC9111970190F081E02D682F83
:100D1000CD01099589819A81DC01ED91FC910190C9
:100D2000F081E02D612F099589819A81DF91CF9122
:100D30001F910C94590590E080E00895DC01ED913D
:100D4000FC910190F081E02D09948F929F92AF92D7
:100D5000BF92CF92DF92EF92FF92CF93DF93EC019D
:100D6000C880D980EA80FB8020E030E0A901688556
:100D700079858A859B850E946E1881110FC0CC826F
:100D8000DD82EE82FF82DF91CF91FF90EF90DF90C6
:100D9000CF90BF90AF909F908F9008958C809D8052
:100DA000AE80BF802C853D854E855F85C701B6012D
:100DB0000E94241A0E94031BA5019401C701161664
:100DC000170694F4B6010E94391B181694F4A50175
:100DD0009401688979898A899B890E94251A6C8384
:100DE0007D838E839F83CFCFB6010E946E1887FDCF
:100DF000EECFCC82DD82EE82FF82188619861A86BB
:100E00001B86C1CF8F929F92AF92BF92CF92DF92FB
:100E1000EF92FF920F931F93CF93DF93EC018A0120
:100E2000072E000C880B990B0E9475184B015C0172
:100E300088829982AA82BB82B801012E000C880B9D
:100E4000990B0E9475186B017C01C886D986EA86C9
:100E5000FB862C813D814E815F812C873D874E87AB
:100E60005F87012BC9F0C501B4010E94241AA701B4
:100E700096010E94911A688B798B8A8B9B8BDF91EC
:100E8000CF911F910F91FF90EF90DF90CF90BF9087
:100E9000AF909F908F900895188A198A1A8A1B8A9A
:100EA000EECFCF93C82F2FB7F8948091B3039091D2
:100EB000B403A091B503B091B6032FBF8093B804DB
:100EC0009093B904A093BA04B093BB042FB7F894DD
:100ED0008091B3039091B403A091B503B091B60390
:100EE0002FBF4091B8045091B9046091BA04709139
:100EF000BB04841B950BA60BB70B4091B404509117
:100F0000B5046091B6047091B704481759076A0791
:100F10007B0708F46CC08091B0049091B1040097F5
:100F200009F440C0DC01ED91FC910084F185E02DD5
:100F30000995892B41F460E182E30E940404109238
:100F4000B2038093B1038091B0049091B104DC01AD
:100F5000ED91FC910084F185E02D0995892B09F430
:100F6000B5CF8091B0049091B104DC01ED91FC917A
:100F70000284F385E02D09950E944703882319F325
:100F8000CC2371F080913503C813A0CF85E090E0A9
:100F90009093300380932F0310922E0310922D0311
:100FA00081E026C08091B2049091B304892B09F4AA
:100FB0008DCF8091B2049091B304DC01ED91FC914E
:100FC0000084F185E02D0995892B09F47FCF80916C
:100FD000B2049091B304DC01ED91FC910284F3859D
:100FE000E02D09950E944703882319F3C9CF80E0BB
:100FF000CF910895CF93DF93C0E8D5E0A981BA815E
:10100000988121E020930604909305041092040433
:1010100010920304ED91FC9111970190F081E02D65
:10102000682FCD01099589819A810E94590561E057
:1010300088810E9404041092B2038093B1038981D5
:101040009A81DC01ED91FC910284F385E02D0995F4
:10105000DF91CF9108958F929F92AF92BF92CF92DE
:10106000DF92EF92FF92CF936B017C0120E030E0A2
:1010700040E85FE30E946E1887FD7AC020E030EC04
:101080004AE555E4C701B6010E94391B18163CF425
:10109000C12C30ECD32E3AE5E32E35E4F32E6091EB
:1010A00083057091840580918505909186050E9445
:1010B00073184B015C0120E030E040E855E4C701C3
:1010C000B6010E94D4189B01AC01C501B4010E9475
:1010D000911A20E030E040E05FE30E94251A20E012
:1010E00030E040E85FE30E94241A6B017C0120E0BD
:1010F00030E040E450E40E946E1887FD40C020E0DC
:1011000030E04FE753E4C701B6010E94391B1816BF
:1011100034F4C12CD12C9FE7E92E93E4F92E80E022
:101120000E94FA07C82F682F6F76606180E00E94E6
:101130006F06C701B6010E940A1B8EEF0E946F0660
:101140006C2F80E00E946F0665E070E080E090E028
:101150000E94DA026C2F606A80E0CF91FF90EF90DE
:10116000DF90CF90BF90AF909F908F900C946F06C0
:10117000C12CD12C20E8E22E2FE3F22E90CFC12CEF
:10118000D12C80E4E82EFE2CCACF8F929F92AF9292
:10119000BF92CF92DF92EF92FF920F931F93CF9364
:1011A000DF938C01C0E8D5E0CB84DC84F12CE12C0A
:1011B0002F81388550E040E02C193D094E095F0928
:1011C000072E000C880B990B665A7F4F8F4F9F4F4D
:1011D0000E943E1B24EB30E040E050E00E94921958
:1011E000C20ED31EE41EF51EB60190E080E00E9400
:1011F00073186B017C018EEF0E94FA07682F70E074
:101200006F5F7F4F90E080E00E94731820E034E22F
:1012100044E759E40E94D4184B015C016B817C8146
:101220008D819E810E9473189B01AC01C501B401A0
:101230000E94911A9B01AC01C701B6010E94911A4C
:101240000E940A1B7B0189819A81288131E03093B9
:101250000604209305041092040410920304B801BC
:101260007727660F771F660F771F6A5F7F4FDC0156
:10127000ED91FC910190F081E02D099570E060E026
:1012800089819A810E949E0670E060E089819A813E
:101290000E949E06B70189819A810E949E066F2D49
:1012A00070E089819A810E949E0689819A81DF91EE
:1012B000CF911F910F91FF90EF90DF90CF90BF9053
:1012C000AF909F908F900C945905CF92DF92EF9240
:1012D000FF920F931F93CF93DF9300D0CDB7DEB76C
:1012E00069834A83880F991F0091D7061091D80609
:1012F000000F111FE1E8F6E09F012158364020174A
:10130000310714F41192F8CF2981FC01EF57F94FFE
:1013100021838A81808360E08091D5060E945602F5
:101320001016110604F501501109F801EF57F94F95
:10133000E080D090D306C090D10688E0F82E6E2DC4
:10134000661F6627661F8C2D0E945602EE0C61E018
:101350008D2D0E94560260E08D2D0E945602FA9457
:10136000F110EDCFDDCF61E08091D5060F900F90A9
:10137000DF91CF911F910F91FF90EF90DF90CF9071
:101380000C945602EF92FF921F93CF93DF9320911C
:10139000D7063091D80682179307B4F4EC0123E006
:1013A000880F991F2A95E1F79C012F56394F790133
:1013B00011E0F70111927F0140E0612FCE010E9400
:1013C00065091F5F1930A9F7DF91CF911F91FF9039
:1013D000EF9008952F923F924F925F926F927F927B
:1013E0008F929F92AF92BF92CF92DF92EF92FF9235
:1013F0000F931F93CF93DF9300D01F92CDB7DEB72B
:10140000E22E932E842E752E662E572E482E99830B
:1014100081E896E09B838A83FF24F394D12CC12C2E
:1014200080E8282E312C2E2D392D482D572D662D54
:10143000752D842D99810C2D0E94501B10E000E029
:10144000A22EB12C8091D7069091D80618161906B5
:10145000ECF4C101002E02C0959587950A94E2F73D
:10146000EA81FB812089A501002E02C05595479590
:101470000A94E2F740FF31C0822B808BEA81FB8126
:1014800040896F2D90E080E00E9465090F5F1F4F3B
:1014900008301105B9F6F8E0CF0ED11C8A819B8186
:1014A00001969B838A83F39499E0F912BCCF0F9045
:1014B0000F900F90DF91CF911F910F91FF90EF90C0
:1014C000DF90CF90BF90AF909F908F907F906F9064
:1014D0005F904F903F902F90089580958223EA81EE
:1014E000FB81CBCFAF92BF92CF92DF92EF92FF9270
:1014F0000F931F93CF93DF93C3E0D0E023E0880FD7
:10150000991F2A95E1F7FC01EA5FFE4FA080B180A8
:10151000C280D380E480F580068117819501A60101
:10152000B701C8010E94EA0964EF71E080E090E031
:101530000E94DA0290E080E00E94C20964EF71E04C
:1015400080E090E00E94DA02219741F7DF91CF918D
:101550001F910F91FF90EF90DF90CF90BF90AF90D1
:10156000089542E050E06AE871E083E194E00C9471
:10157000F700CF93DF93FC0101900020E9F731974A
:10158000AF01481B590BBC0183E194E00E94F700B6
:10159000EC010E94B10A8C0F9D1FDF91CF9108953D
:1015A0004F925F926F927F928F929F92AF92BF9273
:1015B000CF92DF92EF92FF920F931F93CF93DF931F
:1015C000CDB7DEB768970FB6F894DEBF0FBECDBFBC
:1015D0002B01E982FA820B831C838BA59CA5ADA508
:1015E000BEA58D839E83AF83B8878FA598A9A9A92F
:1015F000BAA989879A87AB87BC878BA99CA9ADA913
:10160000BEA98D879E87AF87B88B8FA998ADA9ADEE
:10161000BAAD898B9A8BAB8BBC8B8BAD9CADADADD2
:10162000BEAD8D8B9E8BAF8BB88FCA01B9010E9466
:10163000031BA20181EE95E00E94020769817A8175
:101640008B819C810E94031BA20185EF95E00E9483
:101650000207C601B5010E94031BA20189E096E0C2
:101660000E9402076D817E818F8198850E94031BF5
:10167000A2018DE196E00E94020769857A858B853B
:101680009C850E94031BA20181E396E00E94020751
:101690006D857E858F8598890E94031BA20185E454
:1016A00096E00E94020769897A898B899C890E9449
:1016B000031BA20189E596E00E9402076D897E89DD
:1016C0008F89988D0E94031BA2018DE696E00E94EF
:1016D00002078DE891E00E94B90A20E030E0A901FC
:1016E0006091E9057091EA058091EB059091EC0518
:1016F0000E946E1881116AC020E030E0A90160915B
:10170000FD057091FE058091FF05909100060E94F5
:101710006E1881115BC020E030E0A90160911106D4
:101720007091120680911306909114060E946E1813
:1017300081114CC020E030E0A90160912506709134
:10174000260680912706909128060E946E18811126
:101750003DC020E030E0A9016091390670913A0661
:1017600080913B0690913C060E946E1881112EC01C
:1017700020E030E0A90160914D0670914E06809105
:101780004F06909150060E946E1881111FC020E0F4
:1017900030E0A90160916106709162068091630654
:1017A000909164060E946E18811110C020E030E014
:1017B000A9016091750670917606809177069091E7
:1017C00078060E946E18882309F467C18090F90595
:1017D0009090FA05A090FB05B090FC0585EF95E090
:1017E0000E94A506C090E505D090E605E090E705CB
:1017F000F090E80581EE95E00E94A506C0928D0567
:10180000D0928E05E0928F05F0929005809291051E
:1018100090929205A0929305B0929405209195051F
:10182000309196054091970550919805C701B601F2
:101830000E94251A0E94031B20919D05822F220FD2
:10184000990B0E94C5082091990530919A05409105
:101850009B0550919C056091910570919205809136
:101860009305909194050E94251A0E94031B2091D4
:101870009E05822F220F990B0E94C5088090210699
:1018800090902206A0902306B09024068DE196E069
:101890000E94A506C0900D06D0900E06E0900F069F
:1018A000F090100689E096E00E94A506C0929F0580
:1018B000D092A005E092A105F092A2058092A30526
:1018C0009092A405A092A505B092A6052091A70527
:1018D0003091A8054091A9055091AA05C701B6010C
:1018E0000E94251A0E94031B2091AF05822F220F10
:1018F000990B0E94C5082091AB053091AC05409131
:10190000AD055091AE056091A3057091A40580913D
:10191000A5059091A6050E94251A0E94031B2091FF
:10192000B005822F220F990B0E94C50880904906AE
:1019300090904A06A0904B06B0904C0685E496E045
:101940000E94A506C0903506D0903606E090370676
:10195000F090380681E396E00E94A506C092B1059A
:10196000D092B205E092B305F092B4058092B5052D
:101970009092B605A092B705B092B8052091B9052E
:101980003091BA054091BB055091BC05C701B60125
:101990000E94251A0E94031B2091C105822F220F4D
:1019A000990B0E94C5082091BD053091BE0540915C
:1019B000BF055091C0056091B5057091B605809145
:1019C000B7059091B8050E94251A0E94031B20912B
:1019D000C205822F220F990B0E94C50880907106C4
:1019E00090907206A0907306B09074068DE696E013
:1019F0000E94A506C0905D06D0905E06E0905F064E
:101A0000F090600689E596E00E94A506C092C305A5
:101A1000D092C405E092C505F092C6058092C70534
:101A20009092C805A092C905B092CA052091CB0535
:101A30003091CC054091CD055091CE05C701B6013E
:101A40000E94251A0E94031B2091D305822F220F8A
:101A5000990B0E94C5082091CF053091D005409187
:101A6000D1055091D2056091C7057091C80580914C
:101A7000C9059091CA050E94251A0E94031B209156
:101A8000D405822F220F990B0E94C50861E070E0F7
:101A900080E090E00E94DA0220CE84E991E068962E
:101AA0000FB6F894DEBF0FBECDBFDF91CF911F916F
:101AB0000F91FF90EF90DF90CF90BF90AF909F90ED
:101AC0008F907F906F905F904F900C94B90A0F9316
:101AD0001F93CF93DF938C01D0E0C0E0F801EC0FAF
:101AE000FD1F6491662341F083E194E00E94970119
:101AF000892B11F02196F2CF0E94B10A8C0F9D1F05
:101B0000DF91CF911F910F9108950F931F93CF9362
:101B1000DF93EC0188819981009759F02A813B81FC
:101B20002617370730F081E0DF91CF911F910F9199
:101B300008958B016F5F7F4F0E94961C009759F0AC
:101B4000998388831B830A832C813D81232B59F73A
:101B5000FC011082E8CF80E0E7CFFC018081918119
:101B6000009711F00C940D1C0895EF92FF920F93C3
:101B70001F93CF93DF93EC017B018A01BA010E948E
:101B8000850D28813981811114C02115310519F085
:101B9000C9010E940D1C198218821D821C821B82A1
:101BA0001A82CE01DF91CF911F910F91FF90EF909C
:101BB00008951D830C83B701C9010E945C1DF1CFFC
:101BC000EF92FF920F931F93CF93DF93CDB7DEB7C2
:101BD00062970FB6F894DEBF0FBECDBF8C01CB016C
:101BE000F8011182108213821282158214824AE057
:101BF0009E012F5F3F4F7901B9010E943918F7010B
:101C000001900020E9F73197AF014E195F09B70144
:101C1000C8010E94B50D62960FB6F894DEBF0FBEE4
:101C2000CDBFDF91CF911F910F91FF90EF9008955D
:101C300085ED8093BC008091FF0390910004A091FA
:101C40000104B09102040796A11DB11D23E0B695D1
:101C5000A795979587952A95D1F72091BC0024FDEB
:101C600003C01092FD0308954091FF0350910004BA
:101C70006091010470910204452B462B472B69F3B8
:101C80000097A105B10541F02AE22A95F1F700C0BD
:101C90000197A109B109E1CF8091FE030C94E30300
:101CA0001F920F920FB60F9211242F933F934F93D1
:101CB0005F936F937F938F939F93AF93BF93EF93B4
:101CC000FF9383E194E00E947501FF91EF91BF9132
:101CD000AF919F918F917F916F915F914F913F91C4
:101CE0002F910F900FBE0F901F9018951F920F927B
:101CF0000FB60F9211242F938F939F93EF93FF931F
:101D0000E0912304F09124048081E0912904F09172
:101D10002A0482FD1BC0908180912C048F5F8F73F9
:101D200020912D04821741F0E0912C04F0E0ED5E4B
:101D3000FB4F958F80932C04FF91EF919F918F9192
:101D40002F910F900FBE0F901F9018958081F4CFA8
:101D50001F920F920FB60F9211242F933F938F93E0
:101D60009F93AF93BF938091B3039091B403A091DD
:101D7000B503B091B60330919C0223E0230F2D37B9
:101D800058F50196A11DB11D20939C028093B303C9
:101D90009093B403A093B503B093B60380919D02D2
:101DA00090919E02A0919F02B091A0020196A11D68
:101DB000B11D80939D0290939E02A0939F02B093C9
:101DC000A002BF91AF919F918F913F912F910F9062
:101DD0000FBE0F901F90189526E8230F0296A11DA5
:101DE000B11DD2CF1F920F920FB60F9211240F90F8
:101DF0000FBE0F901F9018951F920F920FB60F9263
:101E000011242F933F934F935F936F937F938F93FF
:101E10009F93AF93BF93EF93FF938091B900887F17
:101E2000803609F44AC0F0F5883209F4A7C018F5E5
:101E3000803109F49BC0B8F4882309F4F9C08830D4
:101E400009F494C0FF91EF91BF91AF919F918F9151
:101E50007F916F915F914F913F912F910F900FBEA6
:101E60000F901F901895883109F488C0803251F77F
:101E70008093DB0314C0803409F49DC040F48033A8
:101E8000B9F38833F9F68093DB0385ECB0C0803575
:101E900009F485C0883509F496C0883499F60E9403
:101EA000180ED0CF883909F48CC038F5883729F05E
:101EB00050F4883611F0803729F683E08093FD03D3
:101EC0001092950257C0883809F47BC0803919F008
:101ED000803809F0B7CF80919502803208F071C048
:101EE000E091950281E08E0F809395028091BB0076
:101EF000F0E0EB58FD4F80833DC0803B39F0E0F4CB
:101F0000803A09F479C0883A09F09CCF84E0809344
:101F1000FD031092740210927302E0912403F09179
:101F2000250309958091730281110FC081E0809390
:101F300073021092530209C0803C09F4A6CF883C7A
:101F400009F4A3CF883B09F07DCFE091740281E0D2
:101F50008E0F80937402F0E0ED5AFD4F80818093E4
:101F6000BB00909174028091730229C08091D803C4
:101F70008093BB0085EC8093BC0064CF9091DA0322
:101F80008091D903981758F5E091DA0381E08E0F1C
:101F90008093DA03F0E0E954FC4F8081E9CFE091CF
:101FA000DA0381E08E0F8093DA038091BB00F0E0CA
:101FB000E954FC4F80839091DA038091D9039817FC
:101FC000C8F285E8D8CFE091DA0381E08E0F8093E4
:101FD000DA038091BB00F0E0E954FC4F80838091EC
:101FE000DC0381115CCF81E08093D70384EA809386
:101FF000BC001092FD0326CF85EC8093BC001092AC
:10200000FD0380919502803230F4E0919502F0E07A
:10201000EB58FD4F10826091950270E0E09126032D
:10202000F091270385E792E00995109295020ACF77
:102030001092DB0334CF2091220330912303A901B6
:102040004F5F5F4F4038510520F081E080932103BE
:1020500008952F553D4FF9018083509323034093FA
:102060002203089520912F0330913003809198022C
:10207000909199022817390724F480912E03882320
:1020800031F081E080932D0390E080E00895F90124
:10209000EF5CFC4F808191812E5F3F4F3093300386
:1020A00020932F030895CF93DF932091350362137C
:1020B00027C0EC0185E090E09093300380932F03DC
:1020C00010922E0310922D0368830E9432109A837F
:1020D00089830E9432109C838B830E9432109E83DE
:1020E0008D830E94321098878F830E9432109A87C6
:1020F000898780912D03811110922D0381E001C009
:1021000080E0DF91CF910895CF93DF931092160472
:102110001092150488EE93E0A0E0B0E080931704DD
:1021200090931804A0931904B0931A042AE631E09E
:10213000309314042093130425EC30E030932004F2
:1021400020931F0424EC30E03093220420932104D8
:1021500020EC30E0309324042093230421EC30E081
:10216000309326042093250422EC30E03093280499
:102170002093270426EC30E030932A04209329048E
:1021800010922C0410922D0410922E0410922F0401
:1021900010920A041092090480930B0490930C048B
:1021A000A0930D04B0930E048CE791E09093080483
:1021B00080930704C7E0D0E0D093D206C093D10645
:1021C00086E090E09093D4068093D30685E090E07B
:1021D0009093D6068093D50681E090E09093D80640
:1021E0008093D70661E087E00E94840261E08091DD
:1021F000D3060E94840261E08091D5060E94840289
:1022000061E08091D5060E945602D093D206C09319
:10221000D106E1E9F6E081ED96E011928E179F0775
:10222000E1F7D0E0C0E08091D7069091D806C817BA
:10223000D9073CF540E06FE0CE010E94650980912E
:10224000D7069091D806C817D9072CF447E06BE061
:10225000CE010E94650940E069E0CE010E94650957
:10226000CE010E94C2098091D7069091D806C81766
:10227000D9072CF440E06CE0CE010E94650921965C
:10228000D2CF80E48093800587E094E0909382052C
:102290008093810584EF91E0909388058093870572
:1022A0008CED95E090938A058093890584EC99E004
:1022B00090938C0580938B0580E090E0A0ECB0E4D7
:1022C0008093D5059093D605A093D705B093D805F4
:1022D00080E090E0A0EAB0E48093D9059093DA051D
:1022E000A093DB05B093DC0580E090E0A0E3B1E4CF
:1022F0008093DD059093DE05A093DF05B093E005A4
:1023000010929D0581E080939E0582E08093AF0549
:1023100083E08093B0058CE08093C1058DE08093CD
:10232000C2058EE08093D3058FE08093D40550E002
:1023300040E070E060E081EE95E00E94020750E02E
:1023400040E068E070E085EF95E00E94020750E011
:1023500040E070E060E089E096E00E94020750E013
:1023600040E068E070E08DE196E00E94020750E0F6
:1023700040E070E060E081E396E00E94020750E0F8
:1023800040E068E070E085E496E00E94020750E0DB
:1023900040E070E060E089E596E00E94020750E0CE
:1023A00040E068E070E08DE696E00E94020782EA75
:1023B00091E00E94B90A84E690E0A0E0B0E080934A
:1023C000B4049093B504A093B604B093B7041092EC
:1023D000BD041092BC0410923F0510923E0510926D
:1023E000B1041092B0041092B3041092B2048FEFB3
:1023F000809340058FEF9FEF9093420580934105B6
:10240000909344058093430590934605809345053A
:10241000909348058093470590934A05809349051A
:10242000DF91CF910895CF93DF93CDB7DEB7CE5430
:10243000D1090FB6F894DEBF0FBECDBF789484B536
:10244000826084BD84B5816084BD85B5826085BDB0
:1024500085B5816085BD80916E00816080936E003E
:102460001092810080918100826080938100809130
:1024700081008160809381008091800081608093E1
:1024800080008091B10084608093B1008091B000A1
:1024900081608093B00080917A00846080937A009C
:1024A00080917A00826080937A0080917A008160C6
:1024B00080937A0080917A00806880937A001092ED
:1024C000C100E0912304F091240482E08083E09134
:1024D0001F04F09120041082E0912104F091220465
:1024E00080E1808310922B04E0912704F09128046E
:1024F00086E08083E0912504F0912604808180614C
:102500008083E0912504F091260480818860808397
:10251000E0912504F0912604808180688083E09119
:102520002504F091260480818F7D808304E610E0ED
:102530008BEB91E00E94B90A01501109C9F760E0E4
:1025400088E00E94840260E089E00E94840260E0EA
:102550008AE00E94840260E08BE00E948402109274
:10256000B2031092B10310920404109203040E946B
:10257000C50385EF90E0909325038093240386EFB5
:1025800090E0909327038093260327E0E22E24E037
:10259000F22E1092B3041092B204F092B104E092C1
:1025A000B00405E010E08CE20E9434034C010E946C
:1025B0000C03BC01C4010E9440068EE20E94510738
:1025C000811186C20150110971F78CE391E00E94DC
:1025D000670D83EE90E00E94670D82EC90E00E9410
:1025E000670D64E670E080E090E00E94DA02D1CFEF
:1025F0008F559D4F46E050E0FC015183408330935E
:1026000023032093220376C223968EAD9FAD23979A
:10261000009711F00E940D1C23961FAE1EAE23974B
:1026200027961FAE1EAE279725961FAE1EAE259786
:10263000FDC30130110509F0C4C082E090E00E94A2
:10264000720A1F921F921F921F921F921F921F9237
:102650001F921F921F921F921F921F921F921F92F2
:102660001F921F921F921F921F92A12CB12C6501E5
:1026700086017501A601950164E670E080E090E0B6
:102680000E94D00A9F922F921F921F925F9230EA6F
:102690003F931F921F921F921F921F921F921F9291
:1026A0001F921F921F929F922F921F921F92A12CF6
:1026B000B12C70EAC72E71E4D72EA801970164E609
:1026C00070E080E090E00E94D00A0FB6F894DEBF80
:1026D0000FBECDBF9F922F921F921F925F9290EAE2
:1026E0009F931F921F929F922F921F921F925F9211
:1026F0009F931F921F929F922F921F921F92E12CE5
:10270000F12C04EB12E4A601950164E670E080E090
:1027100090E00E94D00A68E873E180E090E00E94B7
:10272000DA029F922F921F921F929F922F921F92D6
:102730001F929F922F921F921F929F922F921F92F1
:102740001F929F922F921F921F9257016801A8011A
:10275000970164E670E080E090E00E94D00A0FB636
:10276000F894DEBF0FBECDBF1F921F921F921F9223
:102770001F921F921F921F921F921F921F921F92D1
:102780001F921F921F921F921F921F921F921F92C1
:10279000A12CB12C650186017501A601950164E6A5
:1027A00070E080E090E00E94D00A68E873E180E089
:1027B00090E00E94DA020FB6F894DEBF0FBECDBFE4
:1027C00046C46A94672809F059C083E090E00E94EB
:1027D000720A1F921F921F921F921F921F921F92A6
:1027E0001F921F921F921F921F921F921F921F9261
:1027F0001F921F921F921F921F92A12CB12C650154
:10280000E12CF12C04EB12E420E030E040E251EC4A
:1028100064E670E080E090E00E94D00A68E873E12E
:1028200080E090E00E94DA021F921F921F921F9296
:102830001F921F921F921F921F921F921F921F9210
:102840001F921F921F921F921F921F921F921F9200
:1028500086017501A601950164E670E080E090E0D4
:102860000E94D00A0FB6F894DEBF0FBECDBF68E855
:1028700073E180E090E00E94DA02E9C3019709F079
:1028800022C184E090E00E94720A00EA10E048E76A
:10289000F42E54E3E52E80E20E9434034C010E94A2
:1028A0000C03BC01C4010E9440061092BD041092AA
:1028B000BC0489E20E945107882309F44BC069E2F5
:1028C0008EEF94E00E9453106091FF047091000518
:1028D0001616170614F061E070E036E0660F771FF9
:1028E0003A95E1F780913E0590913F050E94961C34
:1028F00090933F0580933E05912C812C712C612C87
:102900008091FF0490910005681679060CF0ACC325
:1029100080E00E9451078823E9F080913E05909164
:102920003F056AE2880D991D0E945310882339F0F3
:102930009FEF691A790AE0E48E0E911CE1CF809135
:102940003E0590913F056BE2880D991D0E94531042
:102950008111EECF86E591E00E94670D64EF71E092
:1029600080E090E00E94DA0296CF80E00E941B1087
:102970000E940C03BC01C1010E9440068EE20E942D
:102980005107CE018F5B9F4F0E94AD0D2AE082164A
:10299000910408F08AC0F40183E0EE0FFF1F8A95CE
:1029A000E1F7EA5FFE4F20813181428153816481EA
:1029B0007581868197810E94EA092091FF043091F8
:1029C00000054091BC045091BD04C9014217530752
:1029D0000CF4CA01421753070CF070C0AC014F5FF2
:1029E0005F4F5093BD044093BC0480904905909084
:1029F0004A058217930774F426E0880F991F2A95D9
:102A0000E1F720913E0530913F05820F931FFC01B5
:102A100081849284F1E08F1A9108B401CE018F5B1A
:102A20009F4F0E94E00D23966EAD7FAD2397FB0173
:102A300001900020E9F731973F01661A770A68A6EE
:102A400024E1261508F49DCF1EA30DA3FFA22301A8
:102A50005524A201CE0189960E94531DE98284E388
:102A60000E9434031C01862D0E941B1080E00E94EE
:102A70001B1080EA0E941B1088E70E941B10CE01E9
:102A800001963C01C3012F96EEADFFAD2F978E1B33
:102A90009F0B841595050CF068CFF30180A50E946B
:102AA0001B10FFEF6F1A7F0AEDCF23EC37EE4EE7D6
:102AB0005CE36CE37EE787EE93EC7DCF9093BD04FF
:102AC0008093BC044BCF81E192E00E94B90ABFC25F
:102AD0008DE20E9434038C018091220390912303A4
:102AE0009C012E5F3F4F2038310508F481CD81E0F5
:102AF000809321030E940C03BC01C8010E94400680
:102B00008EE20E9451078FEC91E00E94B90A8091F9
:102B1000D7069091D8061816190634F441E06CE0F7
:102B200090E080E00E9465098091D7069091D806D8
:102B30001816190634F441E06AE090E080E00E9443
:102B4000650990E080E00E94C20985EE91E00E9454
:102B5000B90A80E48093800587E094E09093820531
:102B6000809381051092B2031092B1031092040475
:102B7000109203040E94C50385EF90E09093250313
:102B80008093240386EF90E090932703809326039D
:102B900060E880E00E946F066AE070E080E090E00C
:102BA0000E94DA0260E070E08AE794E40E942B0859
:102BB00080E498E7ADE7B1E08093830590938405C6
:102BC000A0938505B093860560E070E088E492E408
:102BD0000E942B0880E090E0A0E7B1EC809395057F
:102BE00090939605A0939705B093980580939905C7
:102BF00090939A05A0939B05B0939C058093A7059D
:102C00009093A805A093A905B093AA0540E050E0D1
:102C100060E271EC4093AB055093AC056093AD0559
:102C20007093AE058093B9059093BA05A093BB0548
:102C3000B093BC058093BD059093BE05A093BF05DE
:102C4000B093C0058093CB059093CC05A093CD05A0
:102C5000B093CE058093CF059093D005A093D10576
:102C6000B093D2051F921F921F921F921F921F9224
:102C70001F921F921F921F921F921F921F921F92CC
:102C80001F921F921F921F921F921F92A12CB12C74
:102C9000650186017501A601950164E670E080E09A
:102CA00090E00E94D00A31E43F9322EB2F9398EBFF
:102CB0009F9382E58F9372E47F9365E46F935BEE5D
:102CC0005F9345E84F933F932F939F938F937F9309
:102CD0006F935F934F933F932F939F938F93B5E899
:102CE000AB2EBBEEBB2EB5E4CB2EB2E4DB2E12E551
:102CF000E12E18EBF12E02EB11E4A601950164E63A
:102D000070E080E090E00E94D00A0FB6F894DEBF39
:102D10000FBECDBF85EE91E00E94B90A8BEF91E026
:102D20000E94B90A28E138E14EE75BED69E973ECEE
:102D300086E69CE30E94EA0960ED77E080E090E09F
:102D40000E94DA0290E080E00E94C209CE01019662
:102D50002F969FAF8EAF2F9792E4992EA4EB2A2E39
:102D6000F1E45F2E60912B0370912C03CE0101964C
:102D70000E94E00D29961FAE1EAE29972B961FAE1E
:102D80001EAE2B972D961FAE1EAE2D9744E050E041
:102D90006CE072E0CE01895B9F4F0E94B50D2396D7
:102DA0001FAE1EAE239725961FAE1EAE2597279603
:102DB0001FAE1EAE279729966EAD7FAD2997611580
:102DC000710549F02D964EAD5FAD2D97CE018F5B0D
:102DD0009F4F0E94B50DE980FA80E114F10409F4D7
:102DE00013CC0D811E810115110501F127968EADC1
:102DF0009FAD2797080F191FB801CE018F5B9F4F1A
:102E00000E94850D882309F4FFCB23962EAD3FAD9C
:102E1000239727968EAD9FAD2797B701820F931FFB
:102E20000E945C1D27961FAF0EAF279727964EADC9
:102E30005FAD279723966EAD7FAD239783E194E036
:102E40000E94F7000E94B10ACE018F5B9F4F0E9443
:102E5000AD0DCE01895B9F4F0E94AD0DCE01019655
:102E60000E94AD0D80912B0390912C0301969093BD
:102E70002C0380932B0388E00E942D027C0181E0CB
:102E800091E0E916F10409F080E080932A0389E0DB
:102E90000E942D028C0181E00130110509F080E0D3
:102EA000809329038AE00E942D023C0181E0E1E049
:102EB0006E16710409F080E0809328038BE00E9475
:102EC0002D02EA94EF2809F0B4CB81E090E00E9453
:102ED000720A59E0652E712C68E1362E71EC472E8E
:102EE000E8EB8E2E5F9220EB2F931F921F929F9202
:102EF00034E43F931F921F929F923F921F921F9222
:102F00009F9282EC8F931F921F929F921F921F920B
:102F10001F92A12CB12CF8EBCF2EF1E4DF2EE12C87
:102F2000F12C00E311ECA601950162E370E080E072
:102F300090E00E94D00A4F9290E39F931F921F92BD
:102F40005F928F921F921F929F921F921F921F92C9
:102F50005F928F921F921F929F923F921F921F9299
:102F6000A12CB12CB2ECCB2EB2E4DB2EE12CF12C57
:102F700000EB11E420E030E044E452E462E370E06E
:102F800080E090E00E94D00A0FB6F894DEBF0FBE3A
:102F9000CDBF9F923F921F921F929F92F2ECFF93A0
:102FA0001F921F925F9220EB2F931F921F929F926E
:102FB00034E43F931F921F924F9280E38F931F92AE
:102FC0001F92A12CB12C98EBC92E91E4D92EE12CA3
:102FD000F12C00E012E4A601950162E370E080E0CC
:102FE00090E00E94D00A9F921F921F921F925F92C0
:102FF0008F921F921F924F9290E39F931F921F9266
:103000005F928F921F921F925F92E0EBEF931F925D
:103010001F92A12CB12C34E4C32E32E4D32EE12C28
:10302000F12C08E112E420E030E042EC52E462E3EB
:1030300070E080E090E00E94D00AF1E06F1A710821
:103040000FB6F894DEBF0FBECDBF09F04BCF80E0C6
:1030500090E0892B09F486CE0E946101882309F44F
:103060007FCE0E9400007ACE8AE491E00E94670D34
:10307000A4CCBB274A3031F4992322F4BDE29095C9
:1030800081959F4F0C944518BB27FB015527AA2714
:10309000880F991FAA1FA41710F0A41B83955051E5
:1030A000B9F7A05DAA3308F0A95DA193009779F75D
:1030B000B111B1931192CB010C945E18DC01FC01AB
:1030C000672F71917723E1F7329704C07C916D935C
:1030D00070836291AE17BF07C8F308950E94B018BD
:1030E00008F481E00895E89409C097FB3EF49095B8
:1030F0008095709561957F4F8F4F9F4F9923A9F0D1
:10310000F92F96E9BB279395F6958795779567955F
:10311000B795F111F8CFFAF4BB0F11F460FF1BC0A3
:103120006F5F7F4F8F4F9F4F16C0882311F096E936
:1031300011C0772321F09EE8872F762F05C06623E4
:1031400071F096E8862F70E060E02AF09A95660F9D
:10315000771F881FDAF7880F9695879597F9089556
:10316000990F0008550FAA0BE0E8FEEF1616170698
:10317000E807F907C0F012161306E407F50798F000
:10318000621B730B840B950B39F40A2661F0232B19
:10319000242B252B21F408950A2609F4A140A69595
:1031A0008FEF811D811D08950E94E7180C94581916
:1031B0000E944A1938F00E94511920F0952311F00D
:1031C0000C9441190C94471911240C948C190E94E9
:1031D000691970F3959FC1F3950F50E0551F629FD9
:1031E000F001729FBB27F00DB11D639FAA27F00D60
:1031F000B11DAA1F649F6627B00DA11D661F829F87
:103200002227B00DA11D621F739FB00DA11D621F6B
:10321000839FA00D611D221F749F3327A00D611D88
:10322000231F849F600D211D822F762F6A2F11246A
:103230009F5750409AF0F1F088234AF0EE0FFF1F9D
:10324000BB1F661F771F881F91505040A9F79E3FF4
:10325000510580F00C9441190C948C195F3FE4F3F4
:10326000983ED4F3869577956795B795F795E7954A
:103270009F5FC1F7FE2B880F911D9695879597F953
:10328000089597F99F6780E870E060E008959FEFE8
:1032900080EC089500240A941616170618060906ED
:1032A000089500240A9412161306140605060895BC
:1032B000092E0394000C11F4882352F0BB0F40F444
:1032C000BF2B11F460FF04C06F5F7F4F8F4F9F4F84
:1032D000089557FD9058440F551F59F05F3F71F006
:1032E0004795880F97FB991F61F09F3F79F087956D
:1032F0000895121613061406551FF2CF4695F1DFF6
:1033000008C0161617061806991FF1CF8695710585
:10331000610508940895E894BB2766277727CB01B9
:1033200097F90895052E97FB1EF400940E94A919A1
:1033300057FD07D00E94F31907FC03D04EF40C94FC
:10334000A91950954095309521953F4F4F4F5F4FAC
:10335000089590958095709561957F4F8F4F9F4F01
:1033600008950E94151AA59F900DB49F900DA49FDB
:10337000800D911D112408952F923F924F925F92DC
:103380006F927F928F929F92AF92BF92CF92DF9275
:10339000EF92FF920F931F93CF93DF93CDB7DEB7DA
:1033A000CA1BDB0B0FB6F894DEBF0FBECDBF09946E
:1033B0002A88398848885F846E847D848C849B84C5
:1033C000AA84B984C884DF80EE80FD800C811B81D3
:1033D000AA81B981CE0FD11D0FB6F894DEBF0FBE02
:1033E000CDBFED010895A1E21A2EAA1BBB1BFD0162
:1033F0000DC0AA1FBB1FEE1FFF1FA217B307E407D4
:10340000F50720F0A21BB30BE40BF50B661F771F2B
:10341000881F991F1A9469F760957095809590950B
:103420009B01AC01BD01CF010895A29FB001B39FE4
:10343000C001A39F700D811D1124911DB29F700DBD
:10344000811D1124911D08955058BB27AA270E9461
:103450003C1A0C9458190E944A1938F00E945119CC
:1034600020F039F49F3F19F426F40C9447190EF418
:10347000E095E7FB0C944119E92F0E94691958F374
:10348000BA17620773078407950720F079F4A6F549
:103490000C948B190EF4E0950B2EBA2FA02D0B0176
:1034A000B90190010C01CA01A0011124FF27591B89
:1034B00099F0593F50F4503E68F11A16F040A22F8F
:1034C000232F342F4427585FF3CF46953795279500
:1034D000A795F0405395C9F77EF41F16BA0B620BFF
:1034E000730B840BBAF09150A1F0FF0FBB1F661F46
:1034F000771F881FC2F70EC0BA0F621F731F841F89
:1035000048F4879577956795B795F7959E3F08F0AE
:10351000B0CF9395880F08F09927EE0F9795879570
:1035200008950E94A51A0C9458190E94511958F038
:103530000E944A1940F029F45F3F29F00C94411988
:1035400051110C948C190C9447190E94691968F355
:103550009923B1F3552391F3951B550BBB27AA274C
:1035600062177307840738F09F5F5F4F220F331F86
:10357000441FAA1FA9F335D00E2E3AF0E0E832D04E
:1035800091505040E695001CCAF72BD0FE2F29D051
:10359000660F771F881FBB1F261737074807AB0723
:1035A000B0E809F0BB0B802DBF01FF2793585F4F98
:1035B0003AF09E3F510578F00C9441190C948C1907
:1035C0005F3FE4F3983ED4F3869577956795B7957A
:1035D000F7959F5FC9F7880F911D9695879597F985
:1035E0000895E1E0660F771F881FBB1F62177307FE
:1035F0008407BA0720F0621B730B840BBA0BEE1F13
:1036000088F7E09508950E940A1B6894B1110C9404
:103610008C1908950E94711988F09F5798F0B92F5E
:103620009927B751B0F0E1F0660F771F881F991FF7
:103630001AF0BA95C9F714C0B13091F00E948B19F5
:10364000B1E008950C948B19672F782F8827B85F05
:1036500039F0B93FCCF3869577956795B395D9F74F
:103660003EF490958095709561957F4F8F4F9F4F59
:1036700008950E94B01808F48FEF0895DB018F932E
:103680009F930E94B119BF91AF91A29F800D911D90
:10369000A39F900DB29F900D1124089597FD109453
:1036A000002E083098F00850232F342F452F562F26
:1036B000672F782F892F912DF4CF159497958795A3
:1036C0007795679557954795379527950A95AAF762
:1036D0001124002D0895EE0FFF1F0590F491E02DA9
:1036E00009940F931F93CF93DF938230910510F4C9
:1036F00082E090E0E091DB06F091DC0630E020E033
:10370000B0E0A0E0309799F42115310509F44AC0E2
:10371000281B390B24303105D8F58A819B8161152E
:10372000710589F1FB0193838283FE0111C0408101
:1037300051810281138148175907E0F04817590752
:1037400099F4109761F012960C93129713961C93AC
:103750003296CF01DF91CF911F910F910895009381
:10376000DB061093DC06F4CF2115310551F042172A
:10377000530738F0A901DB019A01BD01DF01F8010F
:10378000C1CFEF01F9CF9093DC068093DB06CDCF5C
:10379000FE01E20FF31F8193919322503109398387
:1037A0002883D7CF2091D9063091DA06232B41F414
:1037B00020910201309103013093DA062093D9065B
:1037C00020910001309101012115310541F42DB7FF
:1037D0003EB74091040150910501241B350BE09147
:1037E000D906F091DA06E217F307A0F42E1B3F0B7F
:1037F0002817390778F0AC014E5F5F4F2417350763
:1038000048F04E0F5F1F5093DA064093D90681931C
:1038100091939FCFF0E0E0E09CCFCF93DF930097B0
:10382000E9F0FC01329713821282A091DB06B0917D
:10383000DC06ED0130E020E01097A1F42081318119
:10384000820F931F2091D9063091DA062817390785
:1038500009F061C0F093DA06E093D906DF91CF91C9
:103860000895EA01CE17DF07E8F54A815B819E01E2
:1038700041155105B1F7E901FB83EA83499159915B
:10388000C40FD51FEC17FD0761F48081918102966A
:10389000840F951FE90199838883828193819B839B
:1038A0008A83F0E0E0E012968D919C911397009747
:1038B000B9F52D913C911197CD010296820F931F7E
:1038C0002091D9063091DA062817390739F6309752
:1038D00051F51092DC061092DB06B093DA06A09345
:1038E000D906BCCFD383C28340815181840F951FF9
:1038F000C817D90761F44E5F5F4F88819981480FDF
:10390000591F518340838A819B8193838283211530
:10391000310509F0B0CFF093DC06E093DB069ECFD3
:10392000FD01DC01C0CF13821282D7CFB0E0A0E04E
:10393000ECE9FCE10C94BE198C01009751F4CB0129
:103940000E94711B8C01C801CDB7DEB7E0E10C9479
:10395000DA19FC01E60FF71F9C0122503109E2172A
:10396000F30708F49DC0D901CD91DC911197C617DA
:10397000D70798F0C530D10530F3CE0104978617EC
:10398000970708F3C61BD70B2297C193D1936D936A
:103990007C93CF010E940D1CD6CF5B01AC1ABD0AEF
:1039A0004C018C0E9D1EA091DB06B091DC06512CC3
:1039B000412CF12CE12C109731F58091D906909192
:1039C000DA068815990509F05CC04616570608F016
:1039D00058C08091000190910101009741F48DB78A
:1039E0009EB74091040150910501841B950BE81787
:1039F000F90708F055C0F093DA06E093D906F9010B
:103A000071836083A0CF8D919C91119712966C90D9
:103A1000129713967C901397A815B90559F56C0168
:103A200042E0C40ED11CCA14DB0420F1AC014A19D7
:103A30005B09DA011296159780F0628273825183D6
:103A40004083D9016D937C93E114F10471F0D701A7
:103A50001396FC93EE93129776CF22968C0F9D1FB0
:103A6000F90191838083F301EFCFF093DC06E093BB
:103A7000DB0669CF4816590608F42C017D01D301F5
:103A80009ACFCB010E94711B7C01009749F0AE01D7
:103A9000B8010E94531DC8010E940D1C870153CF1D
:103AA00010E000E050CFFB01DC0102C001900D925C
:103AB00041505040D8F70895FB01DC0101900D9270
:0A3AC0000020E1F70895F894FFCF0D
:103ACA000000DD068000003C66766E66663C0018E3
:103ADA00181C1818187E003C6660300C067E003CE4
:103AEA0066603860663C00303834327E3030007EA2
:103AFA00063E6060663C003C66063E66663C007EAA
:103B0A00663030181818003C66663C66663C003C15
:103B1A0066667C60663C18187EDB99C3663CC3E720
:103B2A007E3C3C7EE7C3000000009701F7002401B9
:103B3A00E401550133014701000000002A05FD0494
:103B4A009B06D304F604E304D4040D0A006D6F76D1
:103B5A00696E67006D6F76652066696E6973686560
:103B6A006400666F6F7420636F6E74726F6C6C653D
:103B7A007220696E69746C697A6500737461727413
:103B8A00696E6720746573742E2E2E2E2E27006898
:103B9A0075736B796C656E732072656164792E2E0C
:103BAA002E2E2E2700646973706C617965722072FB
:103BBA00656164792E2E2E2E2E270073746172741D
:103BCA0020746573742E2E2E2E2E2700676F3A20CE
:103BDA0000707574206F6E72206F6620746865209D
:103BEA00387E31312070696E20746F204849474809
:023BFA000000C9
:00000001FF
